:020000040000fa
:080000000002040000000000f2
:020000040000fa
:04000800e803000009
:020000040000fa
:04000c002a040000c2
:020000040000fa
:040010008a0400005e
:020000040000fa
:0400140008040000dc
:020000040000fa
:040018004a04000096
:020000040000fa
:04001c006a04000072
:020000040000fa
:04002000aa0400002e
:020000040000fa
:040024000c050000c7
:020000040000fa
:040028000c050000c3
:020000040000fa
:04002c000c050000bf
:020000040000fa
:040030000c050000bb
:020000040000fa
:04003400d6040000ee
:020000040000fa
:04003800ac03000015
:020000040000fa
:04003c000c050000af
:020000040000fa
:040040000c050000ab
:020000040000fa
:040044000c050000a7
:020000040000fa
:040048000c050000a3
:020000040000fa
:04004c000c0500009f
:020000040000fa
:040050000c0500009b
:020000040000fa
:040054000c05000097
:020000040000fa
:040058000c05000093
:020000040000fa
:04005c000c0500008f
:020000040000fa
:040060000c0500008b
:020000040000fa
:040064000c05000087
:020000040000fa
:040068000c05000083
:020000040000fa
:04006c000c0500007f
:020000040000fa
:040070000c0500007b
:020000040000fa
:040074000c05000077
:020000040000fa
:040078000c05000073
:020000040000fa
:04007c000c0500006f
:020000040000fa
:040080000c0500006b
:020000040000fa
:040084000c05000067
:020000040000fa
:04008800ca030000a7
:020000040000fa
:04008c000c0500005f
:020000040000fa
:040090000c0500005b
:020000040000fa
:040094000c05000057
:020000040000fa
:040098000c05000053
:020000040000fa
:04009c000c0500004f
:020000040000fa
:0400a0000c0500004b
:020000040000fa
:0400a4000c05000047
:020000040000fa
:0400a8000c05000043
:020000040000fa
:0400ac000c0500003f
:020000040000fa
:0400b0000c0500003b
:020000040000fa
:0400b4001e03000027
:020000040000fa
:0400b8000c05000033
:020000040000fa
:0400bc000c0500002f
:020000040000fa
:0400c0000c0500002b
:020000040000fa
:0400c4000c05000027
:020000040000fa
:0400c8000c05000023
:020000040000fa
:0400cc000c0500001f
:020000040000fa
:0400d0000c0500001b
:020000040000fa
:0400d4000c05000017
:020000040000fa
:0400d8000c05000013
:020000040000fa
:0400dc000c0500000f
:020000040000fa
:0400e0000c0500000b
:020000040000fa
:0400e4000c05000007
:020000040000fa
:0400e8000c05000003
:020000040000fa
:0400ec000c050000ff
:020000040000fa
:0400f0000c050000fb
:020000040000fa
:0400f4000c050000f7
:020000040000fa
:0400f8000c050000f3
:020000040000fa
:0400fc000c050000ef
:020000040000fa
:040100000c050000ea
:020000040000fa
:040104000c050000e6
:020000040000fa
:040108000c050000e2
:020000040000fa
:04010c000c050000de
:020000040000fa
:040110000c050000da
:020000040000fa
:040114000c050000d6
:020000040000fa
:040118000c050000d2
:020000040000fa
:04011c000c050000ce
:020000040000fa
:040120000c050000ca
:020000040000fa
:040124000c050000c6
:020000040000fa
:040128000c050000c2
:020000040000fa
:04012c000c050000be
:020000040000fa
:040130000c050000ba
:020000040000fa
:040134000c050000b6
:020000040000fa
:040138000c050000b2
:020000040000fa
:04013c000c050000ae
:020000040000fa
:040140000c050000aa
:020000040000fa
:040144000c050000a6
:020000040000fa
:040148000c050000a2
:020000040000fa
:04014c000c0500009e
:020000040000fa
:040150000c0500009a
:020000040000fa
:040154000c05000096
:020000040000fa
:040158000c05000092
:020000040000fa
:04015c000c0500008e
:020000040000fa
:040160000c0500008a
:020000040000fa
:040164000c05000086
:020000040000fa
:040168000c05000082
:020000040000fa
:04016c000c0500007e
:020000040000fa
:040170000c0500007a
:020000040000fa
:040174000c05000076
:020000040000fa
:040178000c05000072
:020000040000fa
:04017c000c0500006e
:020000040000fa
:040180000c0500006a
:020000040000fa
:040184000c05000066
:020000040000fa
:040188000c05000062
:020000040000fa
:04018c000c0500005e
:020000040000fa
:040190000c0500005a
:020000040000fa
:040194000c05000056
:020000040000fa
:040198000c05000052
:020000040000fa
:04019c000c0500004e
:020000040000fa
:0401a0000c0500004a
:020000040000fa
:0401a4000c05000046
:020000040000fa
:0401a8000c05000042
:020000040000fa
:0401ac000c0500003e
:020000040000fa
:0401b0000c0500003a
:020000040000fa
:0401b4000c05000036
:020000040000fa
:0401b8000c05000032
:020000040000fa
:0401bc000c0500002e
:020000040000fa
:0401c0000c0500002a
:020000040000fa
:0401c4000c05000026
:020000040000fa
:0401c8000c05000022
:020000040000fa
:0401cc000c0500001e
:020000040000fa
:0401d0000c0500001a
:020000040000fa
:0401d4000c05000016
:020000040000fa
:0401d8000c05000012
:020000040000fa
:0401dc000c0500000e
:020000040000fa
:0401e0000c0500000a
:020000040000fa
:0401e4000c05000006
:020000040000fa
:0401e8000c05000002
:020000040000fa
:0401ec000c050000fe
:020000040000fa
:0401f0000c050000fa
:020000040000fa
:0401f4000c050000f6
:020000040000fa
:0401f8000c050000f2
:020000040000fa
:0401fc000c050000ee
:020000040000fa
:040200000c050000e9
:020000040000fa
:040204000c050000e5
:020000040000fa
:040208000c050000e1
:020000040000fa
:04020c000c050000dd
:020000040000fa
:040210000c050000d9
:020000040000fa
:040214000c050000d5
:020000040000fa
:040218000c050000d1
:020000040000fa
:04021c000c050000cd
:020000040000fa
:040220000c050000c9
:020000040000fa
:040224000c050000c5
:020000040000fa
:040228000c050000c1
:020000040000fa
:04022c000c050000bd
:020000040000fa
:040230000c050000b9
:020000040000fa
:040234000c050000b5
:020000040000fa
:040238000c050000b1
:020000040000fa
:04023c000c050000ad
:020000040000fa
:040240000c050000a9
:020000040000fa
:040244000c050000a5
:020000040000fa
:040248000c050000a1
:020000040000fa
:04024c000c0500009d
:020000040000fa
:040250000c05000099
:020000040000fa
:040254000c05000095
:020000040000fa
:040258000c05000091
:020000040000fa
:04025c000c0500008d
:020000040000fa
:040260000c05000089
:020000040000fa
:040264000c05000085
:020000040000fa
:040268000c05000081
:020000040000fa
:04026c000c0500007d
:020000040000fa
:040270000c05000079
:020000040000fa
:040274000c05000075
:020000040000fa
:040278000c05000071
:020000040000fa
:04027c000c0500006d
:020000040000fa
:040280000c05000069
:020000040000fa
:100400000f4021000eff27000e01880000000000b1
:10041000000020000000e000020032000001200087
:1004200020028800140007007d0107000000e000a2
:1004300003003a008059210001002000020037002b
:100440000000200001002000810f70000100320038
:100450000f000700000020000000e0000200320052
:100460000000020000000000d211020000000000a5
:100470000040da000000fe00800020000000e000e4
:1004800002003200002020009001880000000600d9
:10049000a1028800800478000000eb001f003700f4
:1004a000e284440054a0b4009905ba00e2844400f8
:1004b00054a0b4009906ba00e284440054a0b400e9
:1004c0000006eb00476fde00fd07b200ae018800ba
:1004d000636ce10003003a000ad801000000eb0061
:1004e0000e003700606ce10008003a00004deb00a0
:1004f0000a05e800020039003420ec000af0a000f0
:100500008b05e900f9ff3e00040037006168e10057
:10051000010032000086eb000b00070019c7ba008b
:100520000e04e0001905ba0003003a000a00e000da
:10053000dbff3a0000000600fe07b200ae028800b2
:100540008a047800f5ff37000cd0a300e20f4d00bd
:100550001c003b0089027800354dba000a05e8000e
:10056000020039003420ec000af0a0008b05e900fd
:100570000f003200254dba000a05e80002003900dc
:100580003420ec000af0a0008b05e90008003200de
:100590000c00e0000600320015cdba000a05e800a4
:1005a000020039003420ec000af0a0008b05e900bd
:1005b0008984e80054a0b4000b00e000e2ff3a0098
:1005c000000006009902ba00055d78008b05e9007d
:1005d000f7ff3200c82ade00055d78008b05e900d0
:1005e000f3ff32000c00e000f1ff320019ddba0029
:1005f000eeff3700cc0c040000000000e00c04000b
:1006000000000000f40c040000000000080d0400cd
:10061000000000001a0d040000000000d0130400c8
:1006200000000000e812040000000000b611040001
:1006300000000000ce110400000000003600f800a9
:10064000809fbe00829fbe00849fbe00869fbe002a
:100650000000fa00512080000002200000806000ad
:100660000000e0001f003200512080000000220046
:10067000008060000000e000050032000080800083
:100680000000e00002003200008080000000010055
:100690005120800000002100008060000000e00088
:1006a00005003200108080000000e00002003200ef
:1006b0001080800000000100512080000080200098
:1006c000008060000000e000050032002080800013
:1006d0000000e000020032002080800000000100e5
:1006e0000aa4a90050208000620060000000e00021
:1006f00006003200408080000000e000020032006e
:1007000040808000000001000a24a90051208000e0
:1007100000042000008060000000e00006003200bd
:10072000308080000000e000020032003080800055
:10073000000001000ac4a9000468a9000080fa00b2
:100740004f03be004f02be004f01be004f00be006f
:100750003600f900004006003600f800809fbe0019
:10076000829fbe00849fbe00869fbe000000fa00ec
:10077000550807000088a9000080fa004f03be005a
:100780004f02be004f01be004f00be003600f90010
:10079000004006003600f800809fbe00829fbe0029
:1007a000849fbe00869fbe000000fa005608070026
:1007b0000308a9000080fa004f03be004f02be00ec
:1007c0004f01be004f00be003600f9000040060099
:1007d0003600f800809fbe00829fbe00849fbe004e
:1007e000869fbe000000fa00c028a9000000eb00b0
:1007f000210907000080fa004f03be004f02be002f
:100800004f01be004f00be003600f9000040060058
:100810003600f800809fbe00829fbe00849fbe000d
:10082000869fbe000000fa001a090700c048a90010
:1008300010002000100907000080fa004f03be00de
:100840004f02be004f01be004f00be003600f9004f
:10085000004006003600f800809fbe00829fbe0068
:10086000849fbe00869fbe000000fa00c068a900f9
:1008700020002000000907000080fa004f03be009e
:100880004f02be004f01be004f00be003600f9000f
:10089000004006003600f800809fbe00829fbe0028
:1008a000849fbe00869fbe000000fa00c088a90099
:1008b00030002000f00807000080fa004f03be005f
:1008c0004f02be004f01be004f00be003600f900cf
:1008d000004006003600f800809fbe00829fbe00e8
:1008e000849fbe00869fbe000000fa00c0a8a90039
:1008f00040002000e00807000080fa004f03be001f
:100900004f02be004f01be004f00be003600f9008e
:10091000004006003600f800809fbe00829fbe00a7
:10092000849fbe00869fbe000000fa00c608a90092
:1009300070002000d00807000080fa004f03be00be
:100940004f02be004f01be004f00be003600f9004e
:10095000004006003600f800809fbe00829fbe0067
:10096000849fbe00869fbe000000fa0021468000e2
:1009700000022000008060000000e0000300320060
:10098000c4a8a90090002000bb08070020468000f2
:10099000700060000000e00003003200c488a9007d
:1009a000a0002000b4080700ffff37003600f80061
:1009b000809fbe00829fbe00849fbe00869fbe00b7
:1009c0000000fa00708180000000e00002003200a8
:1009d0007081800000000100900521001040780027
:1009e0008040e80090052100014878008005210042
:1009f00011c0b300014878000068a9000080fa0027
:100a00004f03be004f02be004f01be004f00be00ac
:100a10003600f900004006000040da000000fe0049
:040a200000000500cd
:020000040000fa
:100a2400486500006c6c00006f01000002030000c8
:020000040000fa
:100a34000200fa00000f78001e007800e10f500059
:100a440009003200e10f500005003900e20f5000a8
:100a540007003200e30f500007003200080037009f
:100a640001eba8000600370011eba80004003700d2
:100a740021eba8000200370031eba80000000000c1
:100a84000080fa00000006000400fa00000f78005d
:100a9400110798001e007800e10f50000b0032008f
:100aa400e10f500005003900e20f50000b00320046
:100ab400e30f50000d003200100037009e0090003c
:100ac40021588800062bef000c0037009e00900090
:100ad400a1588800162bef00080037009e009000f4
:100ae40021598800262bef00040037009e00900057
:100af400a1598800362bef00000000000080fa00a6
:100b0400000006000400fa00000f780011079800a6
:100b14001e007800e10f50000a003200e10f50007f
:100b240005003900e20f500009003200e30f5000c5
:100b34000a0032000c0037009e00900061588800c3
:100b4400090037009e009000e15888000600370035
:100b54009e00900061598800030037009e009000b9
:100b6400e1598800000000000080fa00000006003f
:100b74000c00fa00889fbe008a1f7800004f98007e
:100b8400510798000000eb00100798000000eb00ec
:100b9400000f78006000b800200798003107980023
:100ba4000e4890000080fb00c400dd0000202100fe
:100bb4000080400010007800610060001007980079
:100bc4001e0090000000e00018003a000e4890005b
:100bd4000080fb00c400dd000020210000804000f4
:100be40090007800c0ff2100008060004200de0019
:100bf4008000eb005e0190000089be005e00900062
:100c0400a00090000100a100210098000e4890006f
:100c14000080fb00c400dd000020210000804000b3
:100c240010007800620f60005f0037000e489000eb
:100c34000080fb00c400dd00002021000080400093
:100c4400100078006104b800c0ff210001002000fa
:100c54000805780009047800800478008100780091
:100c640009006500810064008103780000037800b6
:100c74000600be0020079800310798002e0090005f
:100c8400be009000c000dd00000020005e03900064
:100c9400008bbe005e009000100478009004900069
:100ca4000e4890000080fb004400dd008080e800d6
:100cb4000020210000804000100078006103b8008b
:100cc400f0ff2000010020000605780007037800eb
:100cd40080037800810078000700650081006300cc
:100ce40081027800000278004628dd00ca20de0078
:100cf400810070004620dd00080040008980480023
:100d04005e029000008abe005e009000100378002e
:100d1400900390000e4890000080fb004400dd002a
:100d2400e400400000202100008040001000780012
:100d34004a00de006102b800f0ff2f00010020002d
:100d440004047800050278008002780081007800ad
:100d540005006400810062008101780000017800d0
:100d64000200be0006004000878048005e0190003b
:100d74000089be005e009000a00090000100a00069
:100d8400210098000e4890000080fb004400dd0024
:100d9400e400400000202100008040009000780022
:100da40000202000008f60001e0078000000e0009a
:100db400050032005e009000a00090000110a00029
:100dc400210098007b0037005e009000a000900096
:100dd4000110a100210098005e00900030009000f6
:100de4008e4890008180fb00c408dd0066814000cd
:100df40001202100810041009100780081407800a9
:100e0400014878005e009000300090000000e80087
:100e14008e4890008180fb00c408dd00668140009c
:100e2400012021008100410091007800c808de0003
:100e340081407800014878005e0090003000900006
:100e44000080e8008e4890008180fb00c408dd002b
:100e54006881400001202100810041009100780058
:100e640081407800014878005e00900030009000d6
:100e7400630040008e4890008180fb00c408dd00c0
:100e84006881400001202100810041009100780028
:100e9400c808de0081407800014878005e009000b8
:100ea40030009000640040008e4890008180fb0078
:100eb400c408dd006a814000012021008100410056
:100ec4009100780081407800014878005e0090002d
:100ed40030009000650040008e4890008180fb0047
:100ee400c408dd006a814000012021008100410026
:100ef40091007800c808de0081407800014878003d
:100f04005e00900030009000660040008e48900023
:100f14008180fb00c408dd006c81400001202100b9
:100f240081004100910078008140780001487800f8
:100f34005e00900030009000670040008e489000f2
:100f44008180fb00c408dd006c8140000120210089
:100f54008100410091007800c808de0081407800db
:100f6400014878000e4890000080fb004400dd003a
:100f7400e4004000002021000080400010007800c0
:100f8400004078006f4060006f4060006f40600078
:100f9400de0090000080fb006f0060004200dd0076
:100fa400a101900032fc2f00028161000200700058
:100fb400a00098004f0578004f04be000080fa009e
:100fc400000006000400fa00000f780011079800e2
:100fd4001e00900020009000610060000000e0000e
:100fe4001d003a001e009000900090001000780050
:100ff40080007800f07f200000806000c200dd00e7
:101004001e009000200090000000d10061406000ac
:101014000080fb000000400062006000808040000f
:101024001e007800010878001e80e8008000eb00b4
:10103400010878009e007800648040009e009000c3
:10104400a1009000c208de00efc060008180fb00b8
:10105400010878002f0037001e00900090009000d7
:10106400100078004008de0080007800c0ff2100f6
:1010740000806000800078003100b3001e0078001a
:10108400010878001e81e8001e0090009000900086
:1010940010007800ca09dd004600de0000807100ff
:1010a400c608de0080007800f0ff200000806000a9
:1010b400000978009e007800648140001e009000c2
:1010c400200090004200de006f4060008081fb0041
:1010d4001e0090009000900010007800000078003e
:1010e4004a00dd00808041001e0090002000900036
:1010f4000000d100614060000080fb004900dd0079
:101104008001780000202000008061000080400001
:10111400000978001e009000300090000000e000fc
:101124003b0032009e017800668041009e009000e2
:10113400b10090008100e800914078008180fb00bc
:101144004809dd009e009000b100900091407800b5
:101154008180fb0081004100010878009e00780036
:10116400688040009e009000b1009000e380400041
:10117400914078008180fb004809dd009e009000ca
:10118400b10090008180e800914078008180fb00ec
:1011940081004100010878009e0178006a804100c6
:1011a4009e009000b1009000e580400091407800de
:1011b4008180fb004809dd009e009000b100900092
:1011c400e4804000914078008180fb008100410070
:1011d400010878009e0078006c8040009e0090001a
:1011e400b1009000e7804000914078008180fb00ce
:1011f4004809dd009e009000b1009000e6804000a8
:10120400914078008180fb00810041000108780052
:101214000080fa00000006000000fa002468a9001b
:101224000c24ef0001208000f08f2f00008060006c
:1012340000a0a00000208800000000000120800021
:10124400000e20008080600000082000808f500085
:10125400faff3a00900020008020880050262400e5
:101264009020880010002c003020880010002000fe
:10127400a02088000024ef000004a800c120800002
:10128400c0ff2f0000806000c02088008121800002
:1012940000fe2f000100700080218800a021800042
:1012a4007f006000a0218800c02180007f006000d2
:1012b400c021880081218000c0ff2f0000806000d1
:1012c40080218800a1218000c0ff2f0000806000e1
:1012d400a0218800c1218000c0ff2f000080600091
:1012e400c02188003224ef003624ef003a24ef00b6
:1012f4003064a9003464a9003864a9000022800085
:10130400ff006000004622000100700000228800f7
:1013140001228000c0ff2f000080600000228800ae
:101324004224ef004064a9000121800000ff2f0047
:10133400008060000000a000002188000004a900d3
:1013440030e4a80031e4a90032e4a90033e4a900a0
:1013540034e4a90035e4a90036e4a90037e4a9007f
:1013640081218000c0ff2f00008060008021880060
:1013740081218000f0cf2f00008060008021880050
:1013840091218000c0ff2f00008060009021880020
:1013940091218000f0cf2f00008060009021880010
:1013a400a1218000c0ff2f0000806000a0218800e0
:1013b400a1218000f0cf2f0000806000a0218800d0
:1013c400b1218000c0ff2f0000806000b0218800a0
:1013d400b1218000f0cf2f0000806000b021880090
:1013e4002024ef002224ef002824ef002a24ef0019
:1013f4000a24a90001208000f08f2f0000806000e3
:10140400002088000000000001208000000e200061
:10141400008060000000e000fbff3a00c0cc200028
:101424006001070000ce20006801070040cf2000c3
:101434007001070080d0200077010700a0d12000b0
:101444007f0107002468a8000c24a8000ca4a800ad
:101454000080fa00000006000000fa00204420008a
:10146400800078000000eb00a6fd070000202100aa
:10147400800078000000eb0083fd07000000eb0013
:101484006bfd07000080fa00000006000000fa006f
:1014940000442000800078002000200099fd07000f
:1014a40000202100800078002000200076fd070045
:1014b400200020005efd07000080fa000000060006
:1014c4000400fa00100798000000eb00000f7800f9
:1014d40021000700e40f5000060032001e009000b7
:1014e400e10f5000030032001e009000e40f500092
:1014f40014003a001e00900000407800674060002d
:101504000080fb00670060004800dd0002208000ce
:10151400f18f2f008100610001007000002088001d
:1015240000000000002080004500de0067406000ed
:101534008080fb001e009000808f5000f9ff3a006d
:101544000200370010002000000f78001e00780011
:101554000080fa00000006000000fa00002080006d
:101564004500de00674060000080fb000080fa0058
:10157400000006000c00fa0040079800510798008c
:101584000000eb00000f78000043200010079800d3
:101594000040eb00604798005e009000200090003f
:1015a4004200de006f4060000080fb00e80f500046
:1015b400010034001e00a0000000eb00200798008a
:1015c400280037001e0090009040780000c8b30047
:1015d40000c060000004e0001c0032001e00900007
:1015e40010407800684060000004e00017003a00f2
:1015f400012021002e0090004400dd000080400006
:10160400de0090006ffe07004e009000004078005e
:10161400e34060001e009000e3c060009041780049
:10162400c2cfb30002c1610081407100014878005b
:101634001e009000904078000134a000014878001a
:1016440010c0b30060479800090037001e009000e6
:101654000000e800100798002e0090000000e80049
:10166400200798002e0090000000e000d5ff320013
:101674006e4090000004a2000004e000020032006a
:101684009e007800638f70001e0078000080fa00ce
:10169400000006000800fa00300798000040eb0044
:1016a400204798003e009000300090000000e000c9
:1016b40002003a002e4090002e00370001218000e5
:1016c400210798002e0090000000e000280032005e
:1016d4000000eb00000f780020003700a08080009d
:1016e400ae0090000008de00610060000040780059
:1016f4000004e0000e003200a0808000004078006a
:10170400be0090001afd0700a08080001100200098
:101714000008dd000080ea008000780000218000dd
:10172400008060000021880010c0b30020479800aa
:10173400a08080000000e800a0808800a0808000d5
:10174400ef0f5000010036001430ef002e409000df
:101754000004e00005003a001e0fe8001e007800b7
:10176400ef0f5000ddff36000100370000000000dd
:101774002e4090000080fa00000006000000fa00ed
:10178400502080004d00de00614060000080fb00be
:1017940000f0a7000000ea000000ea004f00de00ad
:1017a400004078000080fa00000006000000fa0003
:1017b400502080004b00de00614060000080fb0090
:1017c40000f0a7000000ea000000ea004f00de007d
:1017d400004078000080fa00000006000000fa00d3
:1017e400502080004900de00614060000080fb0062
:1017f40000f0a7000000ea000000ea004f00de004d
:10180400004078000080fa00000006000200fa00a0
:101814000040eb00004f78000ec4bf000004e0005d
:10182400050032000ec4bf000004e00002003500d1
:1018340010c0b300004f78001e4078000080fa000a
:10184400000006000000fa00502080004c00de007a
:10185400614060000080fb0000f0a7000000ea0087
:101864000000ea004f00de00004078000080fa002b
:10187400000006000000fa00502080004a00de004c
:10188400614060000080fb0000f0a7000000ea0057
:101894000000ea004f00de00004078000080fa00fb
:1018a400000006000200fa000040eb00004f780040
:1018b4000fc4bf000004e000050032000fc4bf00e5
:1018c4000004e0000200350010c0b300004f7800af
:1018d4001e4078000080fa00000006000600fa00ae
:1018e4000000eb00000f7800012180002107980020
:1018f4002e0090000000e000110032000000eb0018
:10190400100798000b0037001e009000ae009000f6
:101914000008de0061006000004078000004e00080
:10192400010032001e0fe8001e0090000000e800d5
:10193400100798001e009000ef0f5000f2ff3600d1
:101944001e007800004078000080fa0000000600c5
:101954000000fa000ac4a9000cc4a80001208000f9
:10196400f08f2f00008060000080a000002088001d
:101974000000000001208000000e20008080600034
:1019840000022000808f5000faff3a000080fa0025
:10199400000006000000fa004b0107000080fa0076
:1019a400000006000200fa00000f78001e00780014
:1019b400008088000080fa00000006000000fa00a1
:1019c400440107000080fa00000006000200fa004b
:1019d400000f78001e007800108088000080fa0054
:1019e400000006000000fa003d0107000080fa0034
:1019f400000006000200fa00000f78001e007800c4
:101a0400208088000080fa00000006000000fa0030
:101a14000080fa00000006000200fa00000f7800bf
:101a24001e007800308088000080fa000000060064
:101a34000000fa002d0107000080fa0000000600f3
:101a44000200fa00000f78001e0078004080880031
:101a54000080fa00000006000800fa00c00021001f
:101a64003e009800c00021000aff07000004e000c7
:101a7400050032000a70ef00100020004081880049
:101a84001a010700030037000ad0bf000040e80035
:101a94000af0b7000080fa00000006000200fa0015
:101aa400000f78001e0078000000e0000300320000
:101ab400418180001e007800010878000080fa004f
:101ac400000006001400fa00000f9800110f98009f
:101ad40003000900001feb008e00b1007e07980090
:101ae4001e089000900090001000780040079800b5
:101af400510798001e08900040409000614060002b
:101b04000080fb0061006000ee0090000100a10075
:101b140001007000600798001e089000504090007b
:101b2400614060000080fb00610060000000400034
:101b3400ee0090000110a100010070006007980001
:101b44001e089000604090006f4060000080fb0021
:101b54006f0060004200dd006e01900031fc2f0038
:101b64008100610001007000600798007e00900011
:101b74009e089000f1409000014878007e0090009b
:101b84000000e8009e089000814890000148780019
:101b94007e0090000080e8009e089000914890002c
:101ba400014878007e009000630040009e08900089
:101bb400a1489000014878007e0090006400400035
:101bc4009e089000b1489000014878007e00900083
:101bd400650040009e089000c148900001487800cc
:101be4007e009000660040009e089000d14890005e
:101bf400014878007e009000670040009e08900035
:101c0400e1489000014878006800470080007800af
:101c14000e08900057fe070000f0a7000000ea003d
:101c24000000ea004f00de00004078000080fa0067
:101c3400000006001400fa00100f98000040eb00aa
:101c4400004f7800e1004700070009008058eb00ce
:101c54000e00e800000f98006a0047008dfe0700a0
:101c64000004e000430032005e009000ee009000ab
:101c74001e0990000089be007e0090006140600053
:101c8400804078001e089000414098007e0090003b
:101c9400620060000000e000040032001e089000b2
:101ca40021c0b30051409800030037001e08900083
:101cb40011c0b300514098000e0890009040780085
:101cc4001e089000714098000e0890000000e80083
:101cd400904078001e089000014898000e0890007b
:101ce4000080e800904078001e0890001148980099
:101cf4000e08900063004000904078001e08900099
:101d0400214898000e08900064004000904078003c
:101d14001e089000314898000e08900065004000ad
:101d2400904078001e089000414898000e089000ea
:101d340066004000904078001e08900051489800ca
:101d44000e08900067004000904078001e08900044
:101d5400614898007e0090004200de006f40600001
:101d6400804078001e0890006140980010c0b300c5
:101d7400004f78001e4078000080fa000000060042
:101d84000000fa00502080004d00de006140600039
:101d94000080fb0000f0a7000000ea000000ea0059
:101da4004f00de00004078000080fa0000000600ca
:101db4000000fa00502080004b00de00614060000b
:101dc4000080fb0000f0a7000000ea000000ea0029
:101dd4004f00de00004078000080fa00000006009a
:101de4000000fa00502080004c00de0061406000da
:101df4000080fb0000f0a7000000ea000000ea00f9
:101e04004f00de00004078000080fa000000060069
:101e14000600fa000000eb00000f780001218000aa
:101e2400210798002e0090000000e000110032000d
:101e34000000eb00100798000b0037001e00900014
:101e4400ae0090000008de006100600000407800f1
:101e54000004e000010032001e0fe8001e009000a4
:101e64000000e800100798001e009000ef0f5000db
:101e7400f2ff36001e007800004078000080fa006f
:101e8400000006000000fa000ac4a9000cc4a8005f
:101e940001208000f08f2f00008060000080a000ef
:101ea400002088000000000001208000000e2000b7
:101eb4008080600000022000808f5000faff3a000a
:101ec4000080fa00000006000000fa000080fa001a
:101ed400000006000000fa000080fa00000006007e
:101ee4000000fa000080fa00000006000000fa007a
:101ef4000080fa00000006000000fa00022cef0047
:101f04008038210020608800062cef000a2cef00a6
:101f14001a2cef001e2cef00400020000061880006
:101f24004000200000628800400020000063880018
:101f340000012c00e3c1200011322400d2bc2a008d
:101f440082097800810978001061880000022c0061
:101f5400e3c1200011322400d2bc2a008209780097
:101f6400810978001062880000022c00e3c120007f
:101f740011322400d2bc2a00820978008109780039
:101f84001063880030002000e3c1200011322400d7
:101f9400d2bc2a0082097800810978002061880077
:101fa40030002000e3c1200011322400d2bc2a00fa
:101fb40082097800810978002062880030002000be
:101fc400e3c1200011322400d2bc2a008209780027
:101fd4008109780020638800262cef00462cef004e
:101fe400662cef00282cef00482cef00682cef0043
:101ff400400620005061880040062000506288009e
:10200400400620005063880040062000606188007c
:10201400400620006062880040062000606388005b
:10202400401f200090618800522cef00722cef00ba
:10203400342cef00542cef00742cef003a2cef00fa
:102044005a2cef007a2cef003c2cef005c2cef00b4
:102054007c2cef003e2cef005e2cef007e2cef007a
:1020640000002800006088000080fa0000000600dc
:102074000000fa000080fa00000006000000fa00e8
:102084003140800000202000008060000000e0005b
:1020940002003200f6ff07000728a9000080fa00ba
:1020a400000006000000fa000080fa0000000600ac
:1020b4000000fa0031408000002020000080600011
:1020c4000000e00002003200f6ff07000bc8a90080
:1020d4000080fa00000006000000fa000080fa0008
:1020e400000006000000fa003140800000202000bb
:1020f400008060000000e00002003200f6ff0700ec
:102104000be8a9000080fa00000006000000fa00b5
:102114000080fa00000006000000fa003140800050
:1021240000202000008060000000e0000200320077
:10213400f6ff07000c08a9000080fa000000060062
:102144000000fa00003a80000080fa000000060057
:102154000200fa00faff0700000f78001e00780062
:10216400240007000004e000020032000000280000
:10217400710007001e0078002a0007000004e00038
:1021840002003200000024006b0007001e007800eb
:10219400320007000004e0000200320000202000aa
:1021a400650007001e0078003a0007000004e00004
:1021b40002003200000820005f0007001e007800c3
:1021c400420007000004e000020032000004200086
:1021d400590007001e0078004a0007000004e000d0
:1021e4000200320000012000530007000080fa00c2
:1021f400000006000400fa00100798000040eb00fd
:10220400004f78001e0090000000e00002003d0036
:1022140010c0b300004f78001e4078000080fa0020
:10222400000006000400fa00100798000040eb00cc
:10223400004f78009e0090000000240000806000a1
:102244000000e0000200320010c0b300004f78002c
:102254001e4078000080fa00000006000400fa0026
:10226400100798000040eb00004f78009e0090009b
:1022740000202000008060000000e0000200320026
:1022840010c0b300004f78001e4078000080fa00b0
:10229400000006000400fa00100798000040eb005c
:1022a400004f78009e00900000082000008060002d
:1022b4000000e0000200320010c0b300004f7800bc
:1022c4001e4078000080fa00000006000400fa00b6
:1022d400100798000040eb00004f78009e0090002b
:1022e40000042000008060000000e00002003200d2
:1022f40010c0b300004f78001e4078000080fa0040
:10230400000006000400fa00100798000040eb00eb
:10231400004f78001e009000700060000000e00094
:102324000200320010c0b300004f78001e40780055
:102334000080fa00000006000200fa00000f780096
:102344009e80ea00003a800000806000003a880025
:102354000080fa00000006000000fa004027ef00a9
:102364000080fa00000006000000fa005bfd070090
:102374000004e0000600320080012100c5fc0700d3
:102384000004e0000200320010c0b30016f0b700f1
:102394000080fa00000006000000fa00ffff37008a
:1023a4001a00fa001402070080012100010521002f
:1023b40031009800601b2100a1fd0700e01c2100f2
:1023c40078fd070024fc070030fc070040002000d3
:1023d4003bfc070060fc0700e40f500002003a00d9
:1023e4000000eb0036fc0700ea00470022512800f9
:1023f40007000900b25878000010200001002000f6
:1024040010079800210798003e0090000000a100ea
:10241400300798003e0090000010a100300798009b
:10242400be00900030fc2f00008060000050a0002f
:10243400300798006a004700400798000100370001
:1024440000000000008180001181800061004000d4
:10245400e0804800008188001181880002818000aa
:1024640013818000f0232400f1002000800f51002c
:10247400818f59000a003600c0fc07000004a20046
:102484000004e000040032000e80e80080007800c0
:102494001000200037fc07002030ef002230ef004e
:1024a40016d0bf000004e000e5ff32001670ef0014
:1024b4000000eb00000f78000a00370080012100c3
:1024c400b00090001e0078000080400010407800aa
:1024d4008040e8001e017800720041000177780016
:1024e4001e0fe80080012100200090004200de0061
:1024f4006f4060000080fb009e0f5000efff3c0027
:1025040080012100f2004700310098008101210080
:102514003000200017fc0700caff37000000fa0053
:102524000021ef0060182000100888000002280035
:1025340020088800708180000000e00002003a005a
:10254400802e2100240007000068a9002068a8004c
:10255400800521008040eb00014878000080fa00eb
:10256400000006000200fa00000f78009e007800c8
:1025740011088800800521008040eb0001487800a4
:102584000080fa00000006000000fa001008800035
:102594000080fa00000006000200fa00000f780034
:1025a4009e00780001088800800521008040eb002f
:1025b400014878000080fa00000006000000fa00dc
:1025c400000880000080fa00000006000000fa0005
:1025d4000080fa00000006000200fa00000f7800f4
:1025e4002068a9009e007800718188002068a800f6
:1025f4000080fa00000006000000fa0080052100b7
:102604008040eb00014878002068a80005e1a8009c
:102614000080fa00000006000000fa0005e1a900ad
:102624002068a9000080fa00000006000200fa00f9
:1026340080052100104f78001e4078000004e0005f
:1026440003003200800521008040eb00014878003f
:102654001e4078000080fa00000006000000fa0026
:1026640090052100104078000080fb000080fa00f3
:10267400000006000000fa00900521008040eb00f5
:10268400014878000080fa00000006000000fa000b
:1026940000402800001988002223ef005020200069
:1026a400201988004119800000fe2f00008060007e
:1026b4004019880028e3a9002e23ef003023ef00ff
:1026c4003223ef002623ef00003d210036000700ef
:1026d4000080fa00000006000400fa00008fbe002b
:1026e4001e00780000407800614060000080fb001c
:1026f400610060004400dd00011980000140a10078
:1027040001007000001988001e009000004078004d
:10271400674060000080fb00670060004500dd004a
:1027240002198000f1f12f008100610001007000a6
:10273400001988000080fa00000006000200fa0078
:10274400004f78009e4078007fc060000080fb004e
:102754007f0060004219800001fe2f0081006100ab
:1027640001007000401988002023a8008002200086
:10277400010020004d0107002023a90000000000f3
:1027840000198000610060000000e000fcff3200de
:10279400001880000080fa00000006000000fa0023
:1027a4000080fa00000006000200fa00000f780022
:1027b4001e007800508188000080fa0000000600a6
:1027c4000000fa0001408000000022000080600048
:1027d4000000e00006003200508180000000e000ac
:1027e40002003200508180000000010001a8a9000d
:1027f4000080fa00000006000000fa000002220037
:10280400005888006004200010588800062bef0050
:1028140000002100205888000a2bef00082bef004d
:102824000c2bef0070002000705888000088a9006d
:102834002088a800102bef00122bef00162bef00be
:1028440000002100a05888001a2bef00182bef007d
:102854001c2bef001e2bef0001c8a9000002200072
:10286400005988002002200010598800262bef0010
:1028740000002100205988002a2bef00282bef00ac
:102884002c2bef0070002000705988000308a90069
:102894002308a800302bef00322bef00362bef007b
:1028a40000002100a05988003a2bef00382bef00dc
:1028b4003c2bef003e2bef000488a9000080fa00b7
:1028c400000006000000fa000080fa000000060084
:1028d4000000fa000080fa00000006000000fa0080
:1028e4000140800000002400008060000000e0003f
:1028f40002003200f6ff070001c8a9000080fa00b8
:10290400000006000000fa000080fa000000060043
:102914000000fa000080fa00000006000000fa003f
:1029240020408000700060000000e00002003200df
:10293400f7ff07000488a9000080fa0000000600e1
:102944000000fa00042eef00142eef00242eef00f6
:10295400342eef00442eef00542eef00642eef00cf
:1029640030f9210000708800f03f2000807088005a
:10297400f0ff230000718800001620008071880099
:1029840000002f0000728800300020008072880050
:10299400003c2000007388000c2eef001c2eef007a
:1029a4002c2eef003c2eef004c2eef005c2eef009f
:1029b4006c2eef000a2eef001a2eef002a2eef00e5
:1029c4003a2eef004a2eef005a2eef006a2eef0047
:1029d400062eef00162eef00262eef00362eef0007
:1029e400462eef00562eef00662eef0030812100b8
:1029f4007070880030102000f070880030002000d3
:102a04007071880000002f0070728800113a8000f5
:102a1400f00b20000081600060042000710520009c
:102a24002374200080497800814978008249780025
:102a34006134800000fc2f0000806000e000b300df
:102a440060348800a136800000f82f008080600088
:102a54009003200001007000a0368800103a800026
:102a6400000178000260a0006004200071052000cd
:102a740023742000804978008149780082497800d5
:102a84000080fa00000006000000fa000010230095
:102a9400203a88004827ef0000a02800703a8800f8
:102aa40000032000303a88006027ef006227ef001f
:102ab4006427ef006627ef006a27ef006c27ef001a
:102ac4003200200080072000a10920003374200078
:102ad40080497800814978008249780012002000fa
:102ae40060042000710520002374200080497800d0
:102af400814978008249780000000000103a800083
:102b0400610060000000e000fcff3a0000000000eb
:102b1400113a800000022000008060000000e00004
:0c2b2400fbff32000080fa0000000600f9
:020000040000fa
:102b300000120000000200008000000000100000f1
:102b400016000000800000002810000002000000b5
:102b500082000000010000002a10000002000000b6
:102b60008000000030100000200000008000000005
:102b70002c1000000200000082000000ffff000097
:102b80002410000004000000800000005810000025
:102b900002000000800000002e1000000200000073
:102ba00080000000501000000800000080000000bd
:102bb000161000000e000000800000000000000061
:020000040000fa
:102bc0000200fa00000f780021028000200f200090
:102bd000008060001e007000200288000080fa0063
:102be000000006000000fa00c3e8a8000000000092
:102bf000000000000080fa00000006000000fa005b
:102c000050ff07000a000700a0ff0700a0fe070012
:102c100043fe070081f90700f8fe0700f1ff0700f7
:102c200000022000e6ff07000080fa000000060016
:102c30000000fa0031428000f08f2f000080600019
:102c40000080a000304288001142800080ff2f00e9
:102c5000008060000000a000104288000142800057
:102c6000f0ff28000080600000c0a0000042880043
:102c70000080fa00000006000200fa00000f780051
:102c80009e007800618188000000fe000080fa004c
:102c9000000006000000fa00000321008007780011
:102ca00080042100000188000080fa000000060076
:020000040000fa
:102cb000f03fb1000180b10006003500ee030900cd
:102cc00000000000403fb1000180b100fbff3d006b
:102cd0001000b000203fb000020035000080090065
:082ce0000000000000000600e6
:020000040000fa
:102ce800809fbe00ec80570031007800208188006a
:102cf8001100780026f0b7004f00be000000060063
:020000040000fa
:020000040005f5
:045fe000ceff0000f0
:020000040000fa
:020000040005f5
:045fe400ffff0000bb
:020000040000fa
:020000040005f5
:045fe8007fff000037
:020000040000fa
:020000040005f5
:045fec0078ff00003a
:020000040000fa
:020000040005f5
:045ff00078ff000036
:020000040000fa
:020000040005f5
:045ff400ffffff00ac
:00000001FF
